:100000000C94A4080C94EA080C94EA080C94EA08EE
:100010000C94EA080C94EA080C94EA080C94EA0898
:100020000C94EA080C94EA080C94282D0C94FE2DEC
:100030000C94C31D0C94EA080C94EA080C94EA088A
:100040000C94EA080C94EA080C94EA080C94EA0868
:100050000C94EA080C94361E0C94EA080C94EA08F6
:100060000C94EA080C94EA080C94EA080C94EA0848
:100070000C94EA080C94EA080C94EA080C94EA0838
:100080000C94EA080C94EA080C94EA080C94EA0828
:100090000C94EA080C94EA08A709AA09AD09B0096A
:1000A000B309B609B909BC09BF09A10AA70AAB0A75
:1000B000AE0AB20AB60ABA0ABE0AC30AC70ACB0A0D
:1000C000CF0AD20AD60ADA0ADE0AE20AE70A3B13A4
:1000D0003B1375137513B813DA134915491520141A
:1000E0004915C714C7143D15491549154415D414AD
:1000F000D414D414D414D414D414D414D414D414C0
:10010000D414D414D414D414D414D414D414E6149D
:10011000F614FD1404150E15DD15DD15F015F0159A
:10012000E615F015F015F015DD15DD15EC15F015DB
:10013000F015EC15672E8E2E7C2F8E2E7C2FD62E52
:10014000F92E7C2F4F2F5E2F011602160117021772
:1001500001170217011C021C012C022C01150215AB
:1001600001120212011A021A01160216012C022CA7
:100170000124022401260226012C022C010602067B
:1001800001120212010F020F0118021801100210D1
:100190000111021101160216012C022C011F021F6F
:1001A000011E021E011E021E012802280001160265
:1001B000160117021701170217011C021C012C025D
:1001C0002C0115021501120212011A021A0116025F
:1001D00016012C022C0125022501260226012C02E3
:1001E0002C0106020601120212010F020F01180271
:1001F00018011002100111021101160216012C0241
:100200002C011F021F011E021E011E021E012802D8
:10021000280001190219010C020C012C022C01E129
:100220000135023502E1013801E10107020702E16F
:100230000115021501120212011302130105020534
:1002400001120212011B021B0138011702170115CE
:10025000021501040204011102110116021601091E
:100260000209010C020C010F020F0108020801280B
:1002700002280001110211011202120117021701D6
:1002800008020801160216012802280001E2012BCB
:10029000022B012B022B02E2000128022801E101BE
:1002A0003302330121022102E10128022800012941
:1002B000022901E10133023302E1011E012800019C
:1002C0000602060118021801150215010F020F019E
:1002D0002C022C011A021A0117021701170217012A
:1002E00015021501370237010C020C011102110130
:1002F0002802280001160216011802180107020739
:1003000001120212012C022C011602160118021809
:10031000012C022C012D022D012802280029004C5D
:10032000050151B300000000003D043A003B003CD1
:10033000003D003E003F00400041004200430044B9
:100340000045003900005CAA00A90000306800697F
:1003500000B10001302B0450004F00440029000080
:100360000035001E001F0020002100220023002471
:10037000002500260027002D002E002A000000493D
:10038000004A004B00290053005400550046000766
:100390003005304B0005010B012B0014001A00083A
:1003A00000150017001C0018000C00120013002F8D
:1003B000003000000000004C004D004E005F006067
:1003C000006100560050054F053E004E0050054F9D
:1003D00005E20004001600070009000A000B000DEA
:1003E000000E000F00330034003100280000000030
:1003F00000520000005C005D005E0057002B032BE4
:1004000001170152002B032B01E1001D001B000608
:10041000001900050011001000360037003800E513
:1004200000000001510000500028004F0059005A00
:10043000005B000000070117031A0151002C0000A7
:1004400000E000E300E2002B00000002512C00005D
:100450000000006500E30076000000E000000000FE
:10046000005100000000006200630058000100011C
:100470000001000100000000000100010001000176
:100480000001000100010001000100010001000164
:100490000001000100010001000100010001000154
:1004A0000001000100043050044F04090001000065
:1004B0000001000100010001000100010001000134
:1004C0000001000100010001000100010000000125
:1004D000000100010001000100010001000100080D
:1004E000300630010001000100010001000100019F
:1004F00000010001000100010001000100010001F4
:1005000000010000000000010001000100010001E5
:1005100000010001000100010001000100010001D3
:1005200000010001000100010001000100010001C3
:1005300000010001000100010001000100000000B5
:100540000002300000010001000100010001000173
:100550000001004A0001000100010001000100014A
:100560000001000100010001000100010001000183
:100570000000000100000001000100010001000175
:1005800000010000001401010001004D0001000005
:100590000001000100010001000000010001000055
:1005A0000000000100010001000000010000000047
:1005B000000330000000000100010001004445423A
:1005C00055473A20656E61626C65642E0A000A0028
:1005D000253033326C62003A200025303258000A50
:1005E000722F632030313233343536373839414257
:1005F0004344454630313233343536373839414259
:10060000434445460A000A002530325820006B65F5
:1006100079626F6172645F7265706F72743A200004
:100620000A0025303258006B6579626F6172645F31
:100630007365745F6C65643A200064656C5F6B651C
:10064000795F6269743A2063616E27742064656C17
:100650003A20253032580A006164645F6B65795F27
:100660006269743A2063616E2774206164643A2081
:10067000253032580A00646F6E652E0A00626F6F73
:10068000746D61676963207363616E3A202E2E2E4C
:100690002000290A002575002F002575005D28001F
:1006A000256400200025640020002564002000252A
:1006B00064007C0025303258006D6F7573656B6582
:1006C00079205B62746E7C782079207620685D28C2
:1006D0007265702F61636C293A205B006D6B5F77E8
:1006E0006865656C5F74696D655F746F5F6D617877
:1006F000203D2025640A006D6B5F776865656C5F3F
:100700006D61785F7370656564203D2025640A0023
:100710006D6B5F74696D655F746F5F6D6178203DAF
:100720002025640A006D6B5F6D61785F737065658D
:1007300064203D2025640A006D6B5F696E746572EC
:1007400076616C203D2025640A006D6B5F64656CEA
:100750006179203D2025640A006D6B5F77686565CF
:100760006C5F74696D655F746F5F6D6178203D20AB
:1007700025640A006D6B5F776865656C5F6D6178F5
:100780005F7370656564203D2025640A006D6B5FB2
:1007900074696D655F746F5F6D6178203D202564BD
:1007A0000A006D6B5F6D61785F7370656564203DF5
:1007B0002025640A006D6B5F696E74657276616CEA
:1007C000203D2025640A006D6B5F64656C617920B3
:1007D0003D2025640A000A00257500363A20776816
:1007E00065656C5F74696D655F746F5F6D61783AA4
:1007F00020000A00257500353A20776865656C5F32
:100800006D61785F73706565643A20000A00257534
:1008100000343A2074696D655F746F5F6D61783A7A
:1008200020000A00257500333A206D61785F7370EF
:100830006565643A20000A00257500323A20696E29
:1008400074657276616C286D73293A20000A002560
:100850007500313A2064656C6179282A31306D73F6
:10086000293A20000A092D2056616C756573202DE8
:100870000A004D3E004D25643E20003F0073657424
:100880002064656661756C740A00433E20007768D9
:100890006572652064656C74613A20637572736F6C
:1008A000723D25642C20776865656C3D25640A538C
:1008B000656520687474703A2F2F656E2E77696BAA
:1008C0006970656469612E6F72672F77696B692F34
:1008D0004D6F7573655F6B6579730A000A092D208A
:1008E0004D6F7573656B6579202D0A4553432F71E4
:1008F0003A09717569740A313A0964656C6179283D
:100900002A31306D73290A323A09696E746572763C
:10091000616C286D73290A333A096D61785F7370D1
:100920006565640A343A0974696D655F746F5F6D5B
:1009300061780A353A09776865656C5F6D61785F43
:1009400073706565640A363A09776865656C5F742B
:10095000696D655F746F5F6D61780A0A703A09703E
:1009600072696E742076616C7565730A643A0973F6
:1009700065742064656661756C74730A75703A09F4
:100980002B310A646F776E3A092D310A70677570E2
:100990003A092B31300A7067646F776E3A092D314E
:1009A000300A0A7370656564203D2064656C74616B
:1009B000202A206D61785F7370656564202A202885
:1009C000726570656174202F2074696D655F746F46
:1009D0005F6D6178290A003F004D3E2000433E20B4
:1009E000004C25640A0074696D65725F726561640C
:1009F000333228293A202530346C580A006B657947
:100A00006D61705F636F6E6669672E6E6B726F3AB1
:100A10002025580A006B6579626F6172645F6964B2
:100A20006C653A2025580A006B6579626F617264C3
:100A30005F70726F746F636F6C3A2025580A00689C
:100A40006F73745F6B6579626F6172645F6C65640C
:100A50007328293A2025580A000A092D2053746169
:100A6000747573202D0A004743433A20342E382EE4
:100A700032204156522D4C4942433A20312E382ED5
:100A800030204156525F415243483A2061767235D8
:100A9000310A004F5054494F4E533A204C5546416D
:100AA00020424F4F544D41474943204D4F555345E8
:100AB0004B45592045585452414B455920434F4EC0
:100AC000534F4C4520434F4D4D414E44204E4B52C9
:100AD0004F20323034380A004255494C443A2022E3
:100AE000302E362E3132382D372D673137303530B4
:100AF000372D646972747922202830303A32353AC1
:100B00003439204F63742020392032303138290A9B
:100B1000005649443A20307846454544287365617B
:100B20006C626F6172647329205049443A203078B6
:100B30003630363028534231343729205645523A20
:100B4000203078303030310A00444553433A206237
:100B50006967626F690A000A092D20566572736918
:100B60006F6E202D0A000A092D20436F6E736F6C83
:100B700065202D0A4553432F713A09717569740A2E
:100B80006D3A096D6F7573656B65790A000A092DF9
:100B9000204D61676963202D0A443A0944656275F6
:100BA00067204D65737361676520546F67676C6577
:100BB0000A583A094D617472697820446562756714
:100BC000204D6F646520546F67676C65202D20533E
:100BD000686F77206B6579707265737365732069D0
:100BE0006E206D617472697820677269640A4B3A8D
:100BF000094B6579626F6172642044656275672094
:100C0000546F67676C65202D2053686F77206B6584
:100C1000797072657373207265706F72740A4D3AE1
:100C2000094465627567204D6F75736520546F6761
:100C3000676C650A563A0956657273696F6E0A5396
:100C40003A095374617475730A433A0941637469CC
:100C50007661746520436F6E736F6C65204D6F64B1
:100C6000650A46312D4631303A0953776974636815
:100C700020746F204C6179657220302D3920284610
:100C80003130203D204C30290A302D393A09537734
:100C90006974636820746F204C6179657220302D0F
:100CA000390A4553433A0953776974636820746F6E
:100CB000204C6179657220302028616C7465726EF9
:100CC000617465206B65792031290A475241564588
:100CD0003A0953776974636820746F204C617965B1
:100CE0007220302028616C7465726E617465206BAF
:100CF00065792032290A50415553453A094A756DA4
:100D00007020746F20426F6F746C6F616465722025
:100D1000285265736574290A453A095072696E74E0
:100D200020454550524F4D2053657474696E67736A
:100D30000A4E3A094E4B524F20546F67676C650A52
:100D4000000A002575002E6E6B726F3A20000A00B3
:100D50002575002E737761705F6261636B736C61E0
:100D600073685F6261636B73706163653A20000A48
:100D7000002575002E737761705F67726176655F1D
:100D80006573633A20000A002575002E6E6F5F6759
:100D900075693A20000A002575002E737761705F2F
:100DA00072616C745F726775693A20000A0025757C
:100DB000002E737761705F6C616C745F6C6775692E
:100DC0003A20000A002575002E636170736C6F6312
:100DD0006B5F746F5F636F6E74726F6C3A20000AA2
:100DE000002575002E737761705F636F6E74726F8C
:100DF0006C5F636170736C6F636B3A20000A00254F
:100E0000303258006B65796D61705F636F6E666933
:100E1000672E7261773A20000A002575002E6D6FEB
:100E20007573653A20000A002575002E6B6579629E
:100E30006F6172643A20000A002575002E6D61749E
:100E40007269783A20000A002575002E656E61628D
:100E50006C653A20000A00253032580064656275DE
:100E6000675F636F6E6669672E7261773A20000A6A
:100E70000025750064656661756C745F6C617965E9
:100E8000723A20003F004E4B524F3A206F66660A7E
:100E9000004E4B524F3A206F6E0A000A6D6F757309
:100EA000653A206F66660A000A6D6F7573653A20B1
:100EB0006F6E0A000A6B6579626F6172643A206F27
:100EC00066660A000A6B6579626F6172643A206F28
:100ED0006E0A000A6D61747269783A206F66660A5C
:100EE000000A6D61747269783A206F6E0A000A64B4
:100EF000656275673A206F66660A000A6465627506
:100F0000673A206F6E0A000A0A4A756D70696E674B
:100F100020746F20626F6F746C6F616465722E2E27
:100F20002E2000433E20006565636F6E6669673A58
:100F30000A005B735D004B6579626F6172642073B8
:100F4000746172742E0A005B575D005B535D005B39
:100F5000525D005B445D005B435D000403300000B4
:100F6000000C03530042003100340037000000162B
:100F7000037300650061006C0062006F0061007225
:100F8000006400730000000403090409028D0005D9
:100F90000100A0FA09040000010301010009211168
:100FA0000100012240000705810308000A0904012D
:100FB000000103010200092111010001224D000777
:100FC00005820308000A0904020001030000000969
:100FD00021110100012236000705830308000A09D8
:100FE0000403000203000000092111010001222274
:100FF0000007058403200001070504032000010900
:10100000040400010300000009211101000122393C
:1010100000070585032000011201100100000008EF
:10102000EDFE606001000102030105010906A10156
:10103000050719E029E715002501950875018102CA
:10104000050819012905950575019102950175039A
:1010500091010507190029F71500250195F875017B
:101060008102C00631FF0974A1010975150026FF30
:10107000009520750881020976150026FF0095204D
:1010800075089102C005010980A1018502160100C1
:101090002603001A81002A8300751095018100C083
:1010A000050C0901A1018503160100269C021A0105
:1010B000002A9C02751095018100C005010902A15A
:1010C000010901A10005091901290515002501954E
:1010D000057501810295017503810105010930093A
:1010E000311581257F9502750881060938158125FE
:1010F0007F950175088106050C0A38021581257F48
:10110000950175088106C0C005010906A101050702
:1011100019E029E71500250195087501810295015F
:1011200075088101050819012905950575019102C8
:101130009501750391010507190029FF150026FF88
:1011400000950675088100C011241FBECFEFD0E2C4
:10115000DEBFCDBF04B603FE24C08091CE029091C5
:10116000CF02A091D002B091D1028730904BA7401E
:10117000B04BB9F41092CE021092CF021092D0026E
:101180001092D10214BE84B7877F84BF88E10FB666
:10119000F89480936000109260000FBEE0E0FCEFD6
:1011A000099511E0A0E0B1E0E6E4F0E600E00BBF55
:1011B00002C007900D92AC35B107D9F712E0ACE54B
:1011C000B1E001C01D92AE3CB107E1F70E944B2A8D
:1011D0000C9421300C940000FF93EF93E0915C019C
:1011E000F0915D01309709F00995EF91FF91089515
:1011F000FC018591803011F0EFDFFBCF0895FF27D0
:10120000E0E230E247FF0CC0419597FF09C0EDE2F4
:101210006095709580959095611D711D811D911D42
:1012200027FF02C0219530E350E2AA27660F771FFF
:10123000881F991FAA1FA41710F0A41B63955A9525
:10124000A9F7AA3008F0A95FA05DAF93F3956115E7
:1012500071058105910541F7ED3211F4EF93F39596
:10126000F21718F43F93F395FBCF8F91B5DFFA9502
:10127000E1F70895E991F9918591803021F0853267
:1012800019F0AADFF9CF089520E0E894559155327E
:10129000C1F3503311F4689455915A3348F45053C4
:1012A00090F3220F022E220F220F200D250FF4CFD4
:1012B0000EF4219589919991533619F3533729F1F9
:1012C000533559F1BC0188279927E8945C3621F4FD
:1012D0008991999168945591543639F446EF7EF08E
:1012E00077FF0DC08FEF9FEF0AC055374AE039F006
:1012F000583540E121F0523642E009F00895FF935D
:10130000EF937DDFEF91FF91B7CFFF93EF93FC0158
:1013100081918030B9F360DFFBCFFF93EF9368DFFB
:10132000F1CFDF93CF93CDB7DEB72596A3DFCF9173
:10133000DF910895462F50E04930510528F5FA0114
:10134000E45BFF4FDC0112968C910C94D12F81113C
:101350001EC01AC081111EC017C081111EC014C04A
:1013600081111EC011C081111EC00EC081111EC08E
:101370000BC081111EC008C081111EC005C088238A
:1013800019F088E491E0089580E090E0089584EFFA
:1013900092E008958FEB92E008958EEA92E008952E
:1013A00089E992E008958CE892E0089583E792E05D
:1013B000089582E192E008958DEA91E008950895FC
:1013C000089581E00895089581E008950C94E1095D
:1013D0000C94F80D0C94FA0D0C94E3090C94EC09A0
:1013E00008950E94CB150E94F0092FEF84E39CE042
:1013F000215080409040E1F700C000000C945C1E3A
:10140000FF920F931F93CF93DF938C01FC01C08158
:10141000D1818091B701811113C08281882349F065
:10142000CE010E94231BF82E682FCE010E94C91AFC
:1014300004C0CE010E94F71AF82EBE018F2D04C001
:10144000CE010E94231BBE010E94980BEC01B80143
:101450000E94E609882309F463C1C631FCE5DF0771
:1014600009F42CC178F4C130ECE5DE0759F120F421
:10147000C115DC45F9F047C1C531ECE5DE0708F4DC
:1014800040C041C1C83DFCE5DF0709F4FCC050F491
:10149000C63DECE5DE0709F4ACC0C73DDC4509F408
:1014A000CBC031C1CB3D8CE5D807D9F0CC3DDC4574
:1014B000F9F029C1F8018281882309F431C10E9421
:1014C000F1092EC1F8018281882309F429C1809194
:1014D00086028160809386028DEB95E00E94F80879
:1014E0001FC1F8018281882309F41AC180E006C077
:1014F000F8018281882309F413C182E00E94F12A55
:101500000FC1F8018281882309F402C10E949E1C48
:10151000811102C00E94841C0E94BB1C90E0909329
:10152000C0028093BF02FE01E350FC45E231F105A9
:1015300020F4EB5AFF4F0C94D12F8091BF028160B1
:1015400003C08091BF0282608093BF024BC0809134
:10155000BF028460F9CF8091BF0213C08091BF02A7
:101560008061F2CF8091BF028062EECF8091BF0296
:101570008064EACF8091BF028068E6CF8091BF028D
:1015800084608860E1CF8091BF028E7FDDCF809143
:10159000BF028D7FD9CF8091BF028B7FD5CF809145
:1015A000BF0213C08091BF028F7ECECF8091BF0259
:1015B0008F7DCACF8091BF028F7BC6CF8091BF0243
:1015C0008F77C2CF8091BF028B7F877FBDCF9091F5
:1015D000BF0297FB882780F921E0822780FB97F9DB
:1015E0009093BF028091BF020E94BF1C0E94CB1546
:1015F00097C0F8018281882351F0109263010E9404
:10160000F51D9093600180935F0182E022C080917C
:10161000630181110FC080915F01909160010E9470
:101620000D1E883C910530F486E20E946E1186E220
:101630000E94851282E024C0F8018281882361F033
:10164000109264010E94F51D9093620180936101E4
:1016500080E20E94EB1264C08091640181110FC08E
:1016600080916101909162010E940D1E883C91055C
:1016700030F487E20E946E1187E20E94851280E2B8
:101680000E94F2124DC0F80182818111D9CF809160
:1016900064018111F4CF80916101909162010E94F7
:1016A0000D1E883C910558F780E20E94F21288E2F4
:1016B0000E946E1188E20E94851232C00E94F51BC2
:1016C000382FF80122818091040190910501222395
:1016D00071F03A7A21E009F420E020935E012223A0
:1016E00011F065E301C069E20E944D1D09C020911F
:1016F0005E01222311F065E301C069E20E94581DDA
:101700000E94C21B0DC081E080936301809364013D
:10171000C801DF91CF911F910F91FF900C94E409C4
:1017200080E0DF91CF911F910F91FF900895089570
:101730009CE1799FF001112498EA899FE00DF11D49
:101740001124E60FF11DEE0FFF1FE35EFC4F8591A4
:1017500094910895880F991F82539A4FFC018591A7
:1017600094910895CF93DF930E94980B0E94590D96
:10177000EC01811520E5920708F040C0811530E4A6
:10178000930708F01BC1883E910508F5803E91053E
:1017900008F08BC1883A910578F4853A910508F0F4
:1017A0009DC08130910509F480C108F437C18430AF
:1017B000910508F07AC132C18D3B910508F499C0BA
:1017C000803C910508F42AC1805C9109E9C0C115EB
:1017D00080E2D80758F4C11591E0D90708F065C137
:1017E000C03FD10508F41AC1D0655FC1C11520E31F
:1017F000D20708F0D9C0CE019F70D2C0811535E55F
:10180000930708F043C0C11584E5D80708F0EDC080
:10181000C11592E5D90708F5C11521E5D20708F0F1
:10182000D0C02C2F237081E090E002C0880F991F58
:101830002A95E2F79C689E01E4E036952795EA95A3
:10184000E1F72370922BCF70C695C69530E2C39F07
:10185000E0011124C82BD92B28C18C2F86958695A1
:101860009E0123703327C115D34508F0AFC090E225
:10187000899FE001112481E090E002C0880F991F48
:101880002A95E2F7C82BD92BDC680FC1811529E511
:10189000920780F4811538E5930708F0ABC0C115B5
:1018A00086E5D80708F0BAC0CF71DD27DC2FCC273A
:1018B000D062FBC0C1159AE5D90708F4A0C0CE01DB
:1018C00090568115904208F0A9C08D2F8F710E940B
:1018D000D50DDD27D0628F71D82BE7C0853A9105F1
:1018E00009F49FC0863A910509F49EC0C3E8D0E48C
:1018F000DCC0883A910509F49AC0893A910509F447
:1019000099C08A3A910509F498C08B3A910509F477
:1019100097C08C3A910509F496C08B3B910509F468
:1019200095C08C3B910509F494C08D3A910509F45A
:1019300093C0803B910509F492C08E3A910509F459
:1019400091C08F3A910509F490C0813B910509F44B
:101950008FC0823B910509F48EC0833B910509F449
:101960008DC0843B910509F48CC0853B910509F439
:101970008BC0863B910509F48AC0873B910509F429
:1019800089C0883B910509F488C0893B910509F419
:1019900087C08A3B910509F086C0CAE2D6E485C0BB
:1019A0000E94AA0BEC0181C0CE019927D3FF03C08E
:1019B000EC01D86C7AC0EC01D06C77C0DF70D06AD3
:1019C00074C0DC2FCC27C16FD06A6FC090E2899FB2
:1019D000E001112481E090E002C0880F991F2A9550
:1019E000E2F7C82BD92BDA6860C0DC2FCC27C46F94
:1019F000D06A5BC0D82FCC27C06FD06A56C08C2F5E
:101A00008F70806E90E0906A34E0D695C7953A95D5
:101A1000E1F7CF709C013C2BE90147C0C0E0D0E06A
:101A200044C0C1E8D0E441C0C2E8D0E43EC0C2EE48
:101A3000D4E43BC0C9EED4E438C0CAEED4E435C027
:101A4000C5EBD4E432C0C6EBD4E42FC0C3EBD4E47E
:101A50002CC0C4EBD4E429C0C7EBD4E426C0CCEC42
:101A6000D4E423C0CDECD4E420C0C3E8D5E41DC049
:101A7000CAE8D5E41AC0C2E9D5E417C0C4E9D5E480
:101A800014C0C1E2D6E411C0C3E2D6E40EC0C4E281
:101A9000D6E40BC0C5E2D6E408C0C6E2D6E405C071
:101AA000C7E2D6E402C0C0E0D4E4CE01DF91CF911A
:101AB00008958238910549F1B0F48133910509F414
:101AC00059C048F48932910509F44FC08A32910512
:101AD00009F455C008958533910509F441C089334F
:101AE000910599F00895833E910531F138F4803ED7
:101AF000910591F0823E9105A9F00895863E9105E9
:101B000001F1873E910539F108952091BF0220FD32
:101B10003BC021FD39C008958091BF0280FF34C0D1
:101B200089E341C08091BF0282FF32C08091BF0231
:101B300084FF2CC080E037C08091BF0282FD28C0A6
:101B4000F5CF8091BF0283FF25C08091BF0284FD45
:101B5000F1CF87EE28C08091BF0283FD1BC0F5CF77
:101B60008091BF0285FF18C019C08091BF0285FF18
:101B700015C012C08091BF0286FF12C013C08091B1
:101B8000BF0286FF0FC00CC080EE0DC083EE0BC0FD
:101B900082EE09C086EE07C085E305C089E203C076
:101BA00081E301C08AE290E008959091BF0292FF24
:101BB0000DC0282F2871283019F4877F846006C053
:101BC000282F2471243011F48B7F886093FF0DC07F
:101BD000282F2871283119F4877E846106C0282FA8
:101BE0002471243111F48B7E886194FD877E0895E1
:101BF0000C94DF090C94E009E3E3F1E021E030E02C
:101C00008191A82FA295AF70B0E091964C919197D9
:101C10008F70B90102C0660F771F8A95E2F7CB017A
:101C20008095482391964C9371E0E933F70741F78B
:101C3000A7E1B1E021E030E08D91E82FE295EF706F
:101C4000F0E041A18F70B90102C0660F771F8A953D
:101C5000E2F7CB01962F9095492341A392A1982BAF
:101C600092A371E0A333B70739F7EDE7F1E0A5E6FA
:101C7000B1E011921192119211921D921D921D923A
:101C80001D9281E0E539F807A1F70C94E8092F923D
:101C90003F924F925F926F927F928F929F92AF92FC
:101CA000BF92CF92DF92EF92FF920F931F93CF9349
:101CB000DF93CDB7DEB72A970FB6F894DEBF0FBE1D
:101CC000CDBF03E311E085E691E09A87898722245E
:101CD0002394312CC12CD12C7601C394A985BA85CB
:101CE000BC83AB838D919D910D90BC91A02D8D8374
:101CF0009E83AF83B887E985FA85108211821282AC
:101D00001382D8013D918D01E32FE295EF70F0E051
:101D100021A13F70410101C0880C3A95EAF72829BA
:101D200021A322A1A82CA0942A2122A3B0EABA952B
:101D3000F1F787E191E09A83898320E030E0A9817F
:101D4000BA814D91BA83A983642F62956F7070E058
:101D5000DB0190966C91A985BA854D905D906D9050
:101D60007C904F70C10102C0880F991F4A95E2F71D
:101D7000682359F4B701A601022E04C0440F551F71
:101D8000661F771F0A94D2F703C040E050E0BA0103
:101D9000442A552A662A772AA985BA854D925D92EA
:101DA0006D927C9213972F5F3F4F2C31310539F69E
:101DB00021A12A2121A322A1282922A31496BA878E
:101DC000A987EB81FC8140815181628173818D8182
:101DD0009E81AF81B88584179507A607B70749F09C
:101DE00091E0909395010E94F51D90939701809347
:101DF0009601A1E009331A0709F070CF809195018F
:101E00008823E1F080919601909197010E940D1E28
:101E10000697A0F0E5E6F1E02DE731E04191519120
:101E200061917191D9014D935D936D937D939D0166
:101E3000B1E0ED37FB0791F7109295010E94EA0996
:101E400081E02A960FB6F894DEBF0FBECDBFDF91BA
:101E5000CF911F910F91FF90EF90DF90CF90BF90A7
:101E6000AF909F908F907F906F905F904F903F903A
:101E70002F90089594E0899FF0011124E358FE4FBC
:101E800060817181828193810895CF92DF92EF9278
:101E9000FF920F931F93CF93DF938FED95E00E94F6
:101EA000F8082DE7E22E21E0F22EC0E0D0E03AED76
:101EB000C32E35E0D32E00ED15E0DF93CF93DF92F4
:101EC000CF920E94910987ED95E00E94F808F701F2
:101ED00061917191819191917F010E94621C9F9308
:101EE0008F937F936F931F930F930E9491098EECB2
:101EF00095E00E94F80821968DB79EB70A960FB616
:101F0000F8949EBF0FBE8DBFC630D105B1F6DF91EC
:101F1000CF911F910F91FF90EF90DF90CF90089598
:101F200090939D0180939C010895E0919C01F09114
:101F30009D01309721F00190F081E02D099480E01F
:101F40000895FF920F931F93CF93DF938C01E0913D
:101F50009C01F0919D01309799F10280F381E02D71
:101F600009958091860282FF2BC080FF04C08EE01D
:101F700096E00E94F808E80180E2F82E08E016E0FA
:101F80008091860280FF0BC088811F928F931F93E0
:101F90000F930E9491090F900F900F900F90FA9459
:101FA0002196F110EDCF8091860280FF09C086E076
:101FB00096E0DF91CF911F910F91FF900C94F8085C
:101FC000DF91CF911F910F91FF900895E0919C01B7
:101FD000F0919D01309721F00480F581E02D099466
:101FE000089520919A0130919B018217930771F017
:101FF00090939B0180939A01E0919C01F0919D0147
:10200000309721F00680F781E02D09940895209102
:102010009801309199018217930771F0909399017B
:1020200080939801E0919C01F0919D01309721F0FF
:102030000084F185E02D0994089508950C941D10F5
:1020400081E008950E94EC1D85B7806885BF85B743
:10205000806885BF0E94FC0D0C94CD1ECF93C82FC5
:102060008091860282FF1EC080FF04C087E296E056
:102070000E94F8088091860280FF0CC01F92CF93C7
:1020800022E236E03F932F930E9491090F900F9028
:102090000F900F908091860280FF04C080E296E04E
:1020A0000E94F8088C2FCF910C94EE094F925F920A
:1020B0006F927F929F92AF92BF92CF92DF92EF92F8
:1020C000FF920F931F93CF93DF93CDB7DEB72E9779
:1020D0000FB6F894DEBF0FBECDBF0E94470E0E9420
:1020E0002010811111C08FEF89838A831B820E9487
:1020F000F51D8160782F9D838C8349815A816B8186
:102100008D810E943A117DC03FE9A32E31E0B32EAC
:1021100000E010E0902E802F0E943A0FF501C19050
:10212000D190E190F1905F01C626D726E826F926E6
:10213000C114D104E104F10431F40F5F1F4F0630E4
:10214000110541F7D0CF2091860221FF0AC06B878D
:102150007C878D879E870E94450F9E858D857C8517
:102160006B8520E030E0422F26013701022E04C0AB
:1021700076946794579447940A94D2F740FE3AC0F5
:102180002E839F82C12CD12C7601C39404C0CC0C29
:10219000DD1CEE1CFF1C4A95D2F7DC01CB018C2123
:1021A0009D21AE21BF2121E0892B8A2B8B2B09F4A5
:1021B00020E028870E94F51D8160782F9A87898703
:1021C0004E815F8168858A850E943A11F801EE0F81
:1021D000FF1FEE0FFF1FE156FE4F80819181A2810C
:1021E000B3818C259D25AE25BF2580839183A28355
:1021F000B38307C02F5F3F4F2C31310509F0B3CFB8
:102200009CCF0E94F72110919E010E94950F1817F4
:10221000D9F00E94950F80939E012E960FB6F894E8
:10222000DEBF0FBECDBFDF91CF911F910F91FF9009
:10223000EF90DF90CF90BF90AF909F907F906F9086
:102240005F904F900C942E102E960FB6F894DEBF30
:102250000FBECDBFDF91CF911F910F91FF90EF90F7
:10226000DF90CF90BF90AF909F907F906F905F90E6
:102270004F900895CF93DF93CDB7DEB72B970FB66E
:10228000F894DEBF0FBECDBF4F83588769877A872A
:102290008B87DE01119686E0FD0111928A95E9F7A0
:1022A00085E0FE01379601900D928A95E1F749810C
:1022B0005A816B817C818D819E810E94A5182B960D
:1022C0000FB6F894DEBF0FBECDBFDF91CF9108955A
:1022D000FC01808191810E94631B0895CF93DF935D
:1022E0001F92CDB7DEB7682F882309F40AC1823860
:1022F000C1F40E94950F81FD04C169E3809104013E
:10230000909105010E944D1D0E94C21B2FEF81EE8E
:1023100094E0215080409040E1F700C0000069E364
:1023200019C0833811F50E94950F80FDEAC063E55E
:1023300080910401909105010E944D1D0E94C21BD5
:10234000EFEFF1EE24E0E150F0402040E1F700C073
:10235000000063E580910401909105010E94581DE1
:102360000F90DF91CF910C94C21B8438C1F40E946E
:10237000950F82FDC6C067E480910401909105012C
:102380000E944D1D0E94C21B8FEF91EEE4E0815030
:102390009040E040E1F700C0000067E4DBCF8CEF45
:1023A000860F813A70F4862F69830E9474266981B2
:1023B0008111A7C080910401909105010E944D1DDB
:1023C000CFCF80E2860F883048F4677081E001C08B
:1023D000880F6A95EAF70E94F81BC2CF8BE5860F3B
:1023E000833088F4653A29F0663A31F482E890E067
:1023F00005C081E890E002C083E890E00F90DF9193
:10240000CF910C94F10F88E5860F853108F071C0EB
:10241000683A61F1693A69F16A3A71F16B3A79F1B6
:102420006C3A81F16B3B89F16C3B91F16D3A99F11A
:10243000603BA1F16E3AA9F16F3AB1F1613BB9F19C
:10244000623BC1F1633BC9F1643BD1F1653BD9F11A
:10245000663BE1F1673BE9F1683BF1F1693BF9F17A
:102460006A3B09F03FC08AE292E03EC082EE90E013
:102470003BC089EE90E038C08AEE90E035C085EB35
:1024800090E032C086EB90E02FC083EB90E02CC050
:1024900084EB90E029C087EB90E026C08CEC90E0C4
:1024A00023C08DEC90E020C083E891E01DC08AE855
:1024B00091E01AC082E991E017C084E991E014C06C
:1024C00081E292E011C083E292E00EC084E292E0E9
:1024D0000BC085E292E008C086E292E005C087E288
:1024E00092E002C080E090E00F90DF91CF910C94D9
:1024F0000710603F30F0862F0F90DF91CF910C9442
:102500007D200F90DF91CF910895882309F462C058
:10251000823879F40E94950F81FF5CC069E3809155
:102520000401909105010E944D1D0E94C21B69E3A8
:1025300010C08338B1F40E94950F80FF4BC063E553
:1025400080910401909105010E944D1D0E94C21BC3
:1025500063E580910401909105010E94581D0C943F
:10256000C21B843879F40E94950F82FF33C067E460
:1025700080910401909105010E944D1D0E94C21B93
:1025800067E4E7CF9CEF980F913A10F4682FE1CF02
:1025900090E2980F983050F4877091E001C0990F45
:1025A0008A95EAF7892F0E94FE1BD9CF9BE5980FE9
:1025B000933020F480E090E00C94F10F98E5980FB0
:1025C000953120F480E090E00C940710803F10F0EB
:1025D0000C94E5200895882321F00E94F81B0C94A8
:1025E000C21B0895882321F00E94FE1B0C94C21B7D
:1025F00008958F929F92BF92CF92DF92EF92FF92B7
:102600000F931F93CF93DF9300D0CDB7DEB74C016C
:10261000472FFC01C580C2949FE0C922D280DD20F3
:1026200031F079836A830E94151C6A81498149834C
:102630006A830E94BB1B49816A81882389F0DD205F
:1026400079F080E2860F883058F082E00E94A41B67
:102650000E94BB1BBB24B394B82649816A8101C088
:10266000B12CE42EE2948FE0E822F12CF701E95935
:10267000FF4F0C94D12F842F807F142F1F7088233D
:1026800011F01295107FDD20C1F0112309F4E0C193
:1026900080E2860F883010F0611105C0812F6A83B7
:1026A0000E94F81B04C0812F6A830E94081C6A8163
:1026B0006A830E94C21B6A81CBC1862F6A830E94F3
:1026C00085126A81112309F4E4C180E2860F883003
:1026D00010F0611104C0812F0E94FE1B03C0812FE6
:1026E0000E940E1C0E94C21BD4C1842F807F142F15
:1026F0001F70803211F01295107F662319F061303F
:10270000D9F026C0DD2079F0CC2049F0F1E0CF12DD
:1027100006C00E942E1C812B0E94281CBAC10E9458
:102720002E1C812B4AC1CC2021F021E0C21609F4D5
:10273000B0C10E942B1C46C1DD2029F085E08C151C
:1027400008F4A7C139C194E09C1508F4A2C13AC1AC
:10275000DD2051F0CC2009F42FC1F401858180FFE8
:1027600077C18F70858328C1CC2009F42BC181C12A
:10277000242F26952695237030E02115310521F070
:102780002130310561F085C1DD2021F0862F942FA5
:10279000937002C080E090E00E94F10F8AC1DD20BA
:1027A00021F0862F942F937002C080E090E00E9469
:1027B00007107FC1DD20F9F0653F51F0663F71F0F1
:1027C000643FA9F48091B9029091BA0281600BC074
:1027D0008091B9029091BA02826005C08091B902DD
:1027E0009091BA0284609093BA028093B902862FC6
:1027F0000E947D2022C0653F51F0663F91F0643F0A
:10280000C9F48091B9029091BA028E7F05C080917F
:10281000B9029091BA028D7F9093BA028093B90267
:1028200009C02091B9023091BA022B7F3093BA02CD
:102830002093B902862F0E94E5200E946A2139C1A7
:10284000842F837009F04EC0D1102FC1262F2295FE
:1028500026952770220F220F862F8F70C82ED12C1D
:10286000E12CF12C022E04C0CC0CDD1CEE1CFF1C54
:102870000A94D2F764FF10C06FE070E080E090E04F
:1028800004C0660F771F881F991F2A95D2F760959D
:1028900070958095909503C060E070E0CB01242F87
:1028A00026952695237030E02230310569F02330DB
:1028B000310589F06C297D298E299F292130310528
:1028C00071F00E94F619F1C06C297D298E299F298B
:1028D0000E94081AEAC00E94F619C701B6010E94B8
:1028E000E419E3C0DD2019F0842F817001C08695C2
:1028F000882309F4DAC0262F229526952770220F07
:10290000220F862F8F70C82ED12CE12CF12C022E95
:1029100004C0CC0CDD1CEE1CFF1C0A94D2F764FF33
:1029200010C06FE070E080E090E004C0660F771F99
:10293000881F991F2A95D2F760957095809590957C
:1029400003C060E070E0CB01242F2695269523700C
:1029500030E02230310569F02330310589F06C29EF
:102960007D298E299F292130310571F00E94A41AFA
:102970009CC06C297D298E299F290E94B61A95C07A
:102980000E94A41AC701B6010E94921A8EC0062F97
:1029900010E0F801E05EF109E531F10508F054C0FE
:1029A000E958FF4F0C94D12F162F1F70842F8F7171
:1029B000DD2031F00E943D1A812F0E94EB1269C088
:1029C0000E94581A812F0E94F21263C0DD2049F044
:1029D000F4E0FC1508F45DC0842F8F710E94771A13
:1029E00058C025E02C1508F454C0F6CFDD2039F08E
:1029F000842F8F710E943D1A4CC0DD20C9F3842FB3
:102A00008F710E94581A45C0DD2029F0842F8F71E4
:102A10000E942E1A3EC00E94291A3BC0DD2051F0B0
:102A2000142F1F71812F0E943D1A63E0812F0E9495
:102A30009B1B2FC081E00E94A41B81E08C1548F5F0
:102A400082E00E94A41B25C0DD2031F0CC2081F261
:102A5000862F0E946E111DC0CC2089F2693349F483
:102A60009FEFE7EEF3E09150E040F040E1F700C067
:102A70000000862F0E9485120CC04F70C4010E9476
:102A80009A090E94521915C04F70C4010E94970BF9
:102A900010C028E0E216F10441F05CF09AE0E91A77
:102AA000F108E2E0EE16F10420F40E94950F0E9476
:102AB000EE09BB20F1F00E94971B80FD1AC0F401C3
:102AC00012820E94911B0E943D1AC4010E94871528
:102AD0000E94911B0F900F90DF91CF911F910F914A
:102AE000FF90EF90DF90CF90BF909F908F900C94CD
:102AF000581A0F900F90DF91CF911F910F91FF9077
:102B0000EF90DF90CF90BF909F908F9008950F939C
:102B10001F93CF93DF93EC01288139818B819C81B6
:102B2000892B31F03F3F11F080E003C02F3FE1F7E8
:102B300081E0811113C0CE010E94000A882371F048
:102B4000688179818A810E946E1B8C010E94C81A5B
:102B50000E94E119B801CE010E94F912DF91CF91D4
:102B60001F910F9108950E94151C0E94251C8091B1
:102B70000401909105010E94631D0E94C21B0E94E6
:102B80008B220E946A2180E090E00E94F10F80E099
:102B900090E00C9407100E94051C0C94B3150E9441
:102BA000631BE92FE295EF70F0E03297EE30F1050C
:102BB000B8F4E457FF4F0C94D12F803F59F018F42C
:102BC000803E70F407C0843F59F404C0803E10F08A
:102BD000813F31F481E0089593FB882780F90895BF
:102BE00080E00895CF93DF9300D000D01F92CDB73F
:102BF000DEB70F900F900F900F900F90DF91CF9155
:102C00000895CF93DF9300D000D000D0CDB7DEB7CA
:102C100026960FB6F894DEBF0FBECDBFDF91CF91E1
:102C200008951F93CF93DF93C091B80116E0809170
:102C3000B901C81799F0D0E01C9FF0011D9FF00D5D
:102C40001124E654FE4F4081518162817381848159
:102C500095810E9401162196C770E9CFDF91CF912F
:102C60001F9108954091EA015091EB016091EC01B0
:102C70007091ED018091EE019091EF010C9401169D
:102C8000CF938091EF0182958F7009F05FC08091A2
:102C9000EC01882309F45AC02091B801A091B90130
:102CA0006091EA017091EB018091ED019091EE014C
:102CB00031E06F3F09F030E0B32FC6E02A1709F486
:102CC00045C0009721F07F3F21F44B2F03C041E026
:102CD00001C040E030E040FD35C0C29FF001C39F1D
:102CE000F00D1124E654FE4F418174132BC0408136
:102CF000641328C04281411125C043815481481783
:102D0000590710F441505109481B590B483C5105D3
:102D1000C8F48091EF018F7080618093EF0186E0AD
:102D2000829FF001839FF00D1124E154FE4F8081BA
:102D30008F70806180838AEE91E00E948715CF9129
:102D40000C9411162F5F3F4F2770B8CFCF91089585
:102D5000CF92DF92EF92FF920F931F93CF93DF9367
:102D6000CDB7DEB762970FB6F894DEBF0FBECDBF0A
:102D70008C0185E0F801DE011D9601900D928A9587
:102D8000E1F7D8014C9111965C91119712966C91D4
:102D900012971396ED90FC9014977091EA01E091D0
:102DA000EB012091ED013091EE012115310531F05B
:102DB000EF3F31F481E07F3F19F403C081E001C0AF
:102DC00080E0B82FB170CB2E80FD6BC1D090EC01AC
:102DD000DD2009F4F5C0F091EF01E216F30638F0BA
:102DE000C701821B930B883C910548F09DC020953C
:102DF00030952E0D3F1D283C310508F095C08F2FD2
:102E0000807F09F052C0E51314C0741312C0D62E8F
:102E100061110FC0FF70F061F093EF010E94321654
:102E20008AEE91E00E9487158091EF01F801858379
:102E30007CC1EF2831F05F3F31F481E04F3F19F45E
:102E400003C081E001C080E080FD03C081E08627EF
:102E500001C080E0F82FF170FF2E80FF1CC0809130
:102E6000B8012091B90136E0821709F438C190E029
:102E7000389FF001399FF00D1124E654FE4F718107
:102E8000571306C07081471303C07281671303C0D4
:102E900001968770E9CFD62E662309F446C180914A
:102EA000EF0181608093EF0155C0E51308C07413F2
:102EB00006C0611104C0D8011596FC93AEC04D87C1
:102EC0005E878D859E856A8B0E94CF156A898823CF
:102ED00029F1D62E662311F12091EF01822F8295E0
:102EE0008F7090E002970CF462C08091EA0190919B
:102EF000EB0198878F831986FB86EA862C87CE01A3
:102F0000079653C0E51741F14D875E878D859E85F5
:102F10006A8B0E94CF156A89811130C0C8010E9456
:102F20008715DD24D39401C18F2F807F59F77E2D23
:102F3000F98AE88A89890E94F2158AEE91E00E9456
:102F40008715EAEEF1E086E0DF011D928A95E9F748
:102F50000E943216D12CE9C07413D6CF6111D4CFA0
:102F6000D8011596FC93C8010E948715EAEEF1E09E
:102F700086E0DF011D928A95E9F7D7C0D62E662339
:102F800069F22091EF01822F82958F7090E0029775
:102F900074F08091EA019091EB019A8389831B82FE
:102FA000FD82EC822E83CE0101960E94871586E079
:102FB000F801AAEEB1E001900D928A95E1F78AC07E
:102FC000E216F30628F0C701821B930B9C0104C094
:102FD000209530952E0D3F1D283C310508F053C03B
:102FE000D62E662309F49ACFE5132CC074132AC099
:102FF0008091EF0180FD1DC0982F92959F70C9F0C0
:10300000D80115968C9315979F3039F09F5F929554
:10301000907F8F70892B15968C93C8010E9487151D
:1030200086E0F801AAEEB1E001900D928A95E1F7F1
:1030300053C086E0F801AAEEB1E001900D928A95A6
:10304000E1F773C04D875E878D859E850E94CF1501
:10305000882381F096E0F801AAEEB1E001900D928C
:103060009A95E1F78A8B0E9440160E9432168A894F
:10307000D82E5BC08091EF0181608093EF01C80181
:103080000E94871552C07E2DF98AE88A89890E949C
:10309000F215EAEEF1E086E0DF011D928A95E9F78C
:1030A0001BC0662309F43ACF4D875E878D859E85C8
:1030B0000E94CF15D82E882309F430CF86E0F8017E
:1030C000AAEEB1E001900D928A95E1F78AEE91E0C7
:1030D0000E9468110E9440160E94321626C04D8739
:1030E0005E878D859E850E94631B292F22952F70F8
:1030F00030E0223031052CF49F7041F0811106C080
:103100000CC0243031052CF49F7049F4805E883067
:1031100020F0C8010E948715CF2CDC2C06C0D801F6
:1031200015969C91907F91F7F8CF8D2D62960FB6F2
:10313000F894DEBF0FBECDBFDF91CF911F910F91ED
:10314000FF90EF90DF90CF9008951F93CF93DF9380
:10315000CDB7DEB72C970FB6F894DEBF0FBECDBF4C
:103160004F83588769877A878B879C87CE0107961C
:103170000E94A8168823C1F02F8138858A859B85F7
:10318000892B31F03F3F11F080E003C02F3FE1F782
:1031900081E0811147C04F81588569857A858B858B
:1031A0009C850E9401163EC086E0FE013796DE0136
:1031B000119601900D928A95E1F7FF81E8854A8585
:1031C0005B854115510531F0EF3F31F481E0FF3F60
:1031D00019F403C081E001C080E080FD23C020918C
:1031E000B90130E0C9010196877099276091B80153
:1031F00070E086179707F1F1F983EA835D834C83CA
:1032000096E0929FD001939FB00D1124A654BE4F1B
:10321000FE01319601900D929A95E1F78093B901E4
:103220000E94111616E08091B8019091B90189179A
:1032300079F1189FC001112486549E4F0E94A81650
:10324000882331F1E091B8011E9FF0011124E6546A
:10325000FE4F4081518162817381848195810E94FA
:1032600001168091B80190E00196877099278093AC
:10327000B801D9CF0E94CB151092B9011092B801B4
:10328000EAEEF1E086E0DF011D928A95E9F7CACF08
:103290002C960FB6F894DEBF0FBECDBFDF91CF9155
:1032A0001F910895EF92FF920F931F93CF93DF9397
:1032B0009C01009709F471C0F12CEE24E394E9011C
:1032C0002196F9018491843740F4843008F056C087
:1032D000813081F0823021F160C0853709F449C026
:1032E000C0F19CE7980F903708F057C08F770E9485
:1032F000851246C089010E5F1F4FFE01849190E246
:10330000980F983050F48770FE2D01C0FF0F8A95FA
:10331000EAF78F2F0E94181C15C00E946E1114C06E
:1033200089010E5F1F4FFE01849190E2980F983043
:1033300068F48770FE2D01C0FF0F8A95EAF78F2F82
:103340000E941E1C0E94C21BE8011AC00E94851226
:10335000FBCF2E5F3F4FFE01C491CC2341F08FE99C
:103360009FE00197F1F700C00000C150F6CFE901DE
:1033700007C0FE01F490E901229602C00E946E117E
:103380008F2D882341F0EFE9FFE03197F1F700C07E
:1033900000008150F6CF9E0192CFDF91CF911F9117
:1033A0000F91FF90EF90089508950E94D4196093B3
:1033B0005D0270935E0280935F02909360020C94B2
:1033C000B31508950C94D5190F931F9300915D02C6
:1033D00010915E0220915F0230916002602B712B90
:1033E000822B932B1F910F910C94D5190F931F9340
:1033F00000915D0210915E0220915F0230916002A7
:1034000060237123822393231F910F910C94D5196C
:103410000F931F9300915D0210915E0220915F0255
:103420003091600260277127822793271F910F91A7
:103430000C94D51908950C941A1A0E941B1A6093C3
:10344000590270935A0280935B0290935C020C9431
:10345000B31560E070E0CB010C941D1A41E050E020
:1034600060E070E004C0440F551F661F771F8A9507
:10347000D2F7CB01BA010C941D1A41E050E060E094
:1034800070E004C0440F551F661F771F8A95D2F75E
:103490008091590290915A02A0915B02B0915C0216
:1034A000482B592B6A2B7B2BCB01BA010C941D1A8C
:1034B00041E050E060E070E004C0440F551F661F1B
:1034C000771F8A95D2F740955095609570958091B9
:1034D000590290915A02A0915B02B0915C0248237C
:1034E00059236A237B23CB01BA010C941D1A41E0B6
:1034F00050E060E070E004C0440F551F661F771F66
:103500008A95D2F78091590290915A02A0915B025C
:10351000B0915C02482759276A277B27CB01BA0163
:103520000C941D1A0F931F930091590210915A0287
:1035300020915B0230915C02602B712B822B932BCC
:103540001F910F910C941D1A0F931F930091590214
:1035500010915A0220915B0230915C02602371232A
:10356000822393231F910F910C941D1A0F931F9385
:103570000091590210915A0220915B0230915C0235
:1035800060277127822793271F910F910C941D1A92
:1035900008952CE1929F800D1124482F4695469561
:1035A00046958770B1E001C0BB0F8A95EAF785E0C8
:1035B000489FA001112440515E4F80E090E070E0F0
:1035C000FA01E80FF91FA0819B01082E02C0369571
:1035D00027950A94E2F72170332721952A272B2378
:1035E0002A27208301968530910551F708952CE113
:1035F000929F800D1124682F669566956695982F89
:10360000977085E0689FB001112460517E4F40E0C3
:1036100050E080E0FB01E40FF51F208130E0092E2F
:1036200002C0369527950A94E2F721703327042EBD
:1036300001C0220F0A94EAF7822B4F5F5F4F45309B
:10364000510541F70895CF92DF92EF92FF920F93C9
:103650001F93CF93DF93EC01C0905D02D0905E0288
:10366000E0905F02F09060028091590290915A02BE
:10367000A0915B02B0915C02C82AD92AEA2AFB2AEF
:103680000FE110E0B701A601002E04C07695679502
:10369000579547950A94D2F740FD05C0015011098E
:1036A00088F780E007C0BE01802F0E94B20B01970F
:1036B000A9F3802FDF91CF911F910F91FF90EF9091
:1036C000DF90CF900895CF93DF93EC010E94231BEE
:1036D000BE010E94B20BDF91CF9108951F93CF934B
:1036E000DF93EB019091B701992321F0CB010E9468
:1036F000631B13C0882349F0CB010E94231B182FA2
:10370000682FCE010E94C91A04C0CB010E94F71A8B
:10371000182FBE01812F0E94B20BDF91CF911F9114
:10372000089580916102859585958595089580918C
:1037300061028770089598E0899F90011124622B9F
:10374000609361020C943D1A40916102809584233C
:1037500080936102982F977069F450E0282F3327E7
:1037600027FD30954217530729F085958595859556
:103770000C94581A089590916102977081E009F4B1
:1037800080E00895E0910401F091050180918502A7
:103790008083E0910401F091050180819091840281
:1037A000892B8083E0910401F09105018081909143
:1037B0008302892B808390916202992381F0E091AA
:1037C0000401F09105018081892B8083809104019F
:1037D000909105010E94C41C811110926202809197
:1037E0000401909105010C94A10F80918502089528
:1037F00090918502982B90938502089580959091E1
:103800008502982390938502089510928502089569
:1038100090918402982B90938402089580959091C2
:10382000840298239093840208951092840208954C
:1038300090918302982B90938302089580959091A4
:10384000830298239093830208951092830208952F
:10385000809362020895109262020895809162023C
:10386000089590935D0180935C0108958295982F4F
:103870009C7C96959695837344E0849F90011124D7
:10388000922B892F8A7A86959575990F892B0895A1
:103890001F93CF93DF931F92CDB7DEB799830E941A
:1038A000361C182F9981892F0E94361C212F30E059
:1038B000322F2227A901482BCA010F90DF91CF9107
:1038C0001F910895CF92DF92EF92FF92CF93DF93F3
:1038D0006B017C01CB010E94481CEC01C7010E94D6
:1038E000481C6C01CE01A0E0B0E077276627E12CF0
:1038F000F12C6C297D298E299F29DF91CF91FF9092
:10390000EF90DF90CF9008956DEE7EEF80E090E035
:103910000E940B3060E082E090E00E94F92F60E0AE
:1039200083E090E00E94F92F60E084E090E00E9444
:10393000F92F60E085E090E00C94F92F80E090E0B2
:103940000E94F32F21E08D3E9E4F09F020E0822F50
:10395000089582E090E00C94EB2F682F82E090E0D5
:103960000C94F92F83E090E00C94EB2F682F83E008
:1039700090E00C94F92F84E090E00C94EB2F682FEA
:1039800084E090E00C94F92F20E030E040E0FC016E
:10399000E20FF31F518151114F5F2F5F3F4F2F31C6
:1039A0003105A9F7842F089520E030E04FEFFC01A6
:1039B000E20FF31F5281561799F04F3F19F451113E
:1039C00001C0422F2F5F3F4F2E31310581F74F3F0E
:1039D00039F0FC01E40FF11D47FDFA95628308956B
:1039E000089520E030E0FC01E20FF31F428146130E
:1039F00001C012822F5F3F4F2E313105A1F708958C
:103A0000262F2695269526952F3178F4FC01E20F76
:103A1000F11D677021E030E0062E01C0220F0A94EC
:103A2000EAF78181822B818308958091860280FF4D
:103A30000CC01F926F9388E596E09F938F930E942E
:103A400091090F900F900F900F900895262F2695B3
:103A5000269526952F3180F4FC01E20FF11D677049
:103A600021E030E0062E01C0220F0A94EAF72095EB
:103A700081812823218308958091860280FF0CC0D4
:103A80001F926F938AE396E09F938F930E94910910
:103A90000F900F900F900F90089520911601222300
:103AA00029F02091BF0227FD0C94001D0C94D41C1A
:103AB00020911601222329F02091BF0227FD0C94AA
:103AC000261D0C94F11C20E030E0FC01E20FF31FF6
:103AD00011822F5F3F4F2F313105B9F708950895B7
:103AE0000C946F1D0E94701D8091C502843031F1CD
:103AF0001092870220E488E190E00FB6F894A89530
:103B0000809360000FBE2093600080E00E94EE0969
:103B10000E94701D83B7817F846083BF83B78160FB
:103B200083BF7894889583B78E7F83BF88E10FB673
:103B3000F89480936000109260000FBE089508957D
:103B40000895CF930E949F1D0E94470E0E94A01DC2
:103B5000C0E08C2F0E943A0F672B682B692B29F449
:103B6000CF5FC630B1F780E001C081E0CF9108950A
:103B700008950C94B81D0E94CB150E94950F0E94C9
:103B8000EE090C94B91D1F920F920FB60F921124DB
:103B90008F939F93AF93BF9380918702811113C03E
:103BA0008091BB029091BC02A091BD02B091BE0277
:103BB0004196A11DB11D8093BB029093BC02A093BE
:103BC000BD02B093BE02BF91AF919F918F910F90B4
:103BD0000FBE0F901F90189582E084BD93E095BDB5
:103BE0009AEF97BD80936E0008952FB7F894809157
:103BF000BB029091BC02A091BD02B091BE022FBF4A
:103C000008952FB7F8946091BB027091BC02809127
:103C1000BD029091BE022FBF0895CF92DF92EF9226
:103C2000FF920F931F932FB7F8944091BB025091CE
:103C3000BC026091BD027091BE022FBF6A017B0180
:103C4000EE24FF248C0120E030E0C016D106E2060D
:103C5000F30610F441505109481B590BCA011F913A
:103C60000F91FF90EF90DF90CF90089578941F927E
:103C70000F920FB60F9211248F939F93AF93BF9320
:103C80008091BB029091BC02A091BD02B091BE0296
:103C90000196A11DB11D8093BB029093BC02A0931D
:103CA000BD02B093BE02BF91AF919F918F910F90D3
:103CB0000FBE0F901F90189581E08093E00080E286
:103CC0008093D8001092C9008FE19EE40197F1F72C
:103CD00000C0000087E090EBDC018093CE0290935F
:103CE000CF02A093D002B093D1022CE088E190E003
:103CF0000FB6F894A895809360000FBE20936000E3
:103D0000FFCFBF92CF92DF92EF92FF920F931F935C
:103D1000CF93DF93B12CC82FD0E08B2D0E943A0FA8
:103D20006B017C0100E010E0B701A601002E04C089
:103D300076956795579547950A94D2F740FD06C04A
:103D40000F5F1F4F0C31110579F70AC0602F7B2DD3
:103D500080E00E94980BC817D90791F781E005C051
:103D6000B39486E0B812D9CF80E0DF91CF911F9154
:103D70000F91FF90EF90DF90CF90BF900895CF9379
:103D8000C82F8CE20E94811E882321F08C2FCF91B6
:103D90000C94811E80E0CF910895CF930E949E1CC9
:103DA000811102C00E94841C8DE796E00E94F808F1
:103DB000C5E6C15049F00E94470E8FE39CE9019788
:103DC000F1F700C00000F5CF86E796E00E94F80802
:103DD00089E20E94BF1E81110DC18AE20E94BF1EAE
:103DE00081110E94841C85E00E94BF1E81110E94E7
:103DF0005C1E0E94A91C8093860287E00E94BF1E61
:103E0000882399F18BE10E94BF1E882351F0909185
:103E1000860291FB882780F921E0822780FB91F9B7
:103E200022C08EE00E94BF1E882351F0909186022E
:103E300092FB882780F921E0822780FB92F913C04A
:103E400080E10E94BF1E90918602882341F093FB7F
:103E5000882780F921E0822780FB93F904C0892F0D
:103E6000809580FB90F990938602809186020E9453
:103E7000AD1C0E94BB1C90E09093C0028093BF02D7
:103E800080EE0E94BF1E882341F08091BF02982FD0
:103E9000909590FB80F98093BF0289E30E94BF1E3A
:103EA000882359F09091BF0291FB882780F921E087
:103EB000822780FB91F99093BF0282EE0E94BF1E81
:103EC000882359F09091BF0292FB882780F921E066
:103ED000822780FB92F99093BF0286EE0E94BF1E5C
:103EE000882359F09091BF0293FB882780F921E045
:103EF000822780FB93F99093BF0283EE0E94BF1E3E
:103F0000882359F09091BF0294FB882780F921E023
:103F1000822780FB94F99093BF0285E30E94BF1E25
:103F2000882359F09091BF0295FB882780F921E002
:103F3000822780FB95F99093BF0281E30E94BF1E08
:103F4000882359F09091BF0296FB882780F921E0E1
:103F5000822780FB96F99093BF0281E10E94BF1EE9
:103F6000882359F09091BF0297FB882780F921E0C0
:103F7000822780FB97F99093BF028091BF020E9435
:103F8000BF1C87E20E94BF1EC82F8EE10E94BF1E89
:103F90008111C2608FE10E94BF1E8111C46080E266
:103FA0000E94BF1E8111C86081E20E94BF1E811164
:103FB000C06182E20E94BF1E8111C06283E20E9442
:103FC000BF1E8111C06484E20E94BF1E882311F0CD
:103FD000C06802C0CC2329F08C2F0E94B61C6C2F25
:103FE00003C00E94B21C682F70E080E090E0CF9187
:103FF0000C94E219CF91089580918A0280FF0BC042
:104000006091090185E0689FB0011124759567955D
:10401000759567952AC081FF09C06091090185E007
:10402000689FB0011124759567951FC082FF07C076
:104030006091090185E0689FB001112416C040918C
:104040008B024423C9F060910801461788F720913C
:10405000090185E0289F90011124429FC001439FE0
:10406000900D112470E00E94BD2F6038710540F45E
:104070006115710539F002C065E070E0862F089582
:104080008FE7089581E0089580918A0280FF08C03B
:104090006091070170E0759567957595679521C0EA
:1040A00081FF06C06091070170E07595679519C0A2
:1040B00082FF04C06091070170E010C080918B0204
:1040C0008823C1F0609106018617A0F7909107013F
:1040D000989FC001112470E00E94BD2F60387105C7
:1040E00028F46115710521F0862F08958FE7089552
:1040F00081E0089561E070E0F4CF803F21F40E94F8
:10410000FC1F819504C0813F29F40E94FC1F80930D
:104110008E020895823F21F40E94FC1F819504C005
:10412000833F29F40E94FC1F80938D020895893FEC
:1041300019F40E94442005C08A3F31F40E944420B3
:10414000819580938F0208958B3F21F40E94442033
:10415000819504C08C3F29F40E94442080939002F2
:104160000895843F21F480918C02816017C0853FBF
:1041700021F480918C02826011C0863F21F48091ED
:104180008C0284600BC0873F21F480918C02886090
:1041900005C0883F31F480918C02806180938C024D
:1041A00008958D3F21F480918A0281600BC08E3F7B
:1041B00021F480918A02826005C08F3F29F48091AA
:1041C0008A02846080938A020895803F39F4809146
:1041D0008E0287FF6CC010928E0269C0813F29F465
:1041E00080918E021816BCF362C090918D02823FBE
:1041F00029F497FF5CC010928D0259C0833F19F4D7
:104200001916CCF354C0893F41F480918F021816DF
:104210000CF04DC010928F024AC08A3F29F4809161
:104220008F0287FF44C0F6CF8B3F39F48091900214
:1042300087FF3DC0109290023AC08C3F29F48091D4
:1042400090021816BCF333C0843F21F480918C0295
:104250008E7F17C0853F21F480918C028D7F11C025
:10426000863F21F480918C028B7F0BC0873F21F425
:1042700080918C02877F05C0883F31F480918C0249
:104280008F7E80938C0213C08D3F21F480918A022F
:104290008E7F0BC08E3F21F480918A028D7F05C0F6
:1042A0008F3F29F480918A028B7F80938A028091CC
:1042B0008D0281110EC080918E0281110AC0809101
:1042C0008F02811106C080919002811102C010926C
:1042D0008B0208958091860283FF7EC089EB96E071
:1042E0000E94F80880918C021F928F9384EB96E0D5
:1042F0009F938F930E94910982EB96E00E94F808A9
:1043000020918D02822F992787FD90959F932F935F
:104310008FEA96E09F938F930E9491098DEA96E031
:104320000E94F80820918E02822F992787FD909590
:104330009F932F938AEA96E09F938F930E9491090F
:1043400088EA96E00E94F80820918F02822F992730
:1043500087FD90959F932F9385EA96E09F938F9387
:104360000E94910983EA96E00E94F8082091900249
:10437000822F992787FD90959F932F9380EA96E04F
:104380009F938F930E9491098DE996E00E94F8080F
:1043900080918B021F928F938AE996E09F938F936F
:1043A0000E94910988E996E00E94F80880918A02AB
:1043B0001F928F9385E996E09F938F930E949109B6
:1043C00082E996E00E94F8088DB79EB74C960FB62A
:1043D000F8949EBF0FBE8DBF8CE892E00E94E60F5E
:1043E0000E94F51D909389028093880208951F937F
:1043F000CF93DF9380918802909189020E940D1ED5
:1044000040918B02442321F020910A0130E006C044
:1044100020910B015AE0259F9001112482179307E8
:1044200008F475C080918D0210918E02D0918F0298
:10443000C0919002811107C0111105C0D11103C0B4
:10444000CC2309F464C04F3F19F04F5F40938B02B7
:10445000181624F40E94FC1F80938D0280918D0217
:1044600087FF05C00E94FC1F819580938D02111665
:1044700024F40E94FC1F80938E0280918E0287FF9D
:1044800005C00E94FC1F819580938E0220918D02B1
:104490002223D1F040918E024423B1F055EB250345
:1044A00090011124311102C081E001C0832F80935B
:1044B0008D0225EB4203C0011124911102C081E05D
:1044C00001C0892F80938E021D1624F40E9444207F
:1044D00080938F0280918F0287FF05C00E94442045
:1044E000819580938F021C1624F40E9444208093AF
:1044F00090028091900287FF05C00E944420819520
:1045000080939002DF91CF911F910C946A21DF91EB
:10451000CF911F910895ECE8F2E085E0DF011D9254
:104520008A95E9F710928B0210928A0208958CED19
:1045300098E00E94F8081F9281E08F931F9285E017
:104540008F938EE898E09F938F930E9491090F902C
:104550000F900F900F900F900F9008958330E9F116
:1045600028F4813061F0823009F10895853009F432
:1045700062C008F449C0863009F474C008952091DF
:104580000B01862F90E0820F911D8F3F910520F443
:10459000620F60930B0103C08FEF80930B0180913A
:1045A0000B011F928F9387EC97E072C020910A0154
:1045B000862F90E0820F911D8F3F910520F4620FAE
:1045C00060930A0103C08FEF80930A0180910A0172
:1045D0001F928F9385EB97E05BC020910901862F96
:1045E00090E0820F911D8F3F910520F4620F609340
:1045F000090103C08FEF80930901809109011F9287
:104600008F9382EA97E044C020910801862F90E0C2
:10461000820F911D8F3F910520F4620F6093080176
:1046200003C08FEF80930801809108011F928F9340
:104630008DE897E02DC020910701862F90E0820F32
:10464000911D8F3F910520F4620F6093070103C015
:104650008FEF80930701809107011F928F9384E76A
:1046600097E016C020910601862F90E0820F911DE1
:104670008F3F910520F4620F6093060103C08FEF16
:1046800080930601809106011F928F9389E597E040
:104690009F938F930E9491090F900F900F900F900E
:1046A0000895833081F128F4813059F08230D1F0BF
:1046B0000895853009F449C0B8F1863009F456C030
:1046C000089580910B01681720F4861B80930B01DD
:1046D00002C010920B0180910B011F928F938AE40C
:1046E00097E054C080910A01681720F4861B8093DC
:1046F0000A0102C010920A0180910A011F928F9351
:1047000088E397E043C080910901681720F4861B75
:104710008093090102C010920901809109011F9242
:104720008F9385E297E032C080910801681720F4EA
:10473000861B8093080102C0109208018091080135
:104740001F928F9380E197E021C080910701681745
:1047500020F4861B8093070102C01092070180910C
:1047600007011F928F9387EF96E010C0809106019A
:10477000681720F4861B8093060102C01092060180
:10478000809106011F928F938CED96E09F938F93FB
:104790000E9491090F900F900F900F900895CF9362
:1047A000C82F1F928F9321EE39E03F932F930E94E1
:1047B000910961E070E080E090E004C0660F771F2F
:1047C000881F991FCA95D2F70E94E2190F900F9087
:1047D0000F900F90CF910C94CB15CF938B3109F4A0
:1047E000CBC108F049C08E3009F4D9C100F587303B
:1047F00009F4A9C1A8F4863009F05FC2809186024D
:10480000817F8E7F8093860286E69BE00E94F80877
:1048100083E29FE00E94F80881E08093920291C1B8
:10482000883009F45BC08B3009F487C146C28131FE
:1048300009F426C220F4803109F4C4C13EC2863195
:1048400009F4DAC1893109F038C287E59BE00E949A
:10485000F80889E49BE00E94F80881E19BE00E944F
:10486000F80888ED9AE00E94F80883E99AE00E942F
:10487000F80887E69AE063C1853309F41AC268F440
:10488000873209F416C228F48E3108F416C28D510D
:1048900011C2893209F40DC210C2833438F48A334C
:1048A00008F005C2883309F448C107C2833409F40B
:1048B00000C2883409F001C20E94CB1587E09FE056
:1048C0000E94F8089FEF23ED80E391502040804044
:1048D000E1F700C000000E945C1E33C187E29FE048
:1048E0000E94F80884E79EE00E94F8080E94B21C2B
:1048F0001F928F9381E79EE09F938F930E9491096F
:104900008FE69EE00E94F8080E94A91CC82F8CE543
:104910009EE00E94F8081F92CF9327E53EE03F9368
:104920002F930E94910985E59EE00E94F8088BE490
:104930009EE00E94F8088C2F81701F928F9328E4CC
:104940003EE03F932F930E94910986E49EE00E94EF
:10495000F8088CE39EE00E94F808C1FB882780F9E4
:104960001F928F9329E33EE03F932F930E9491097A
:1049700087E39EE00E94F8088BE29EE00E94F80820
:10498000C2FB882780F91F928F9328E23EE03F9375
:104990002F930E94910986E29EE00E94F8088DE123
:1049A0009EE00E94F808C3FBCC27C0F91F92CF936A
:1049B0008AE19EE09F938F930E94910988E19EE097
:1049C0000E94F8080E94BB1CC82F84E09EE00E9451
:1049D000F8081F92CF932FEF3DE03F932F930E9453
:1049E00091098DEF9DE00E94F80884EE9DE00E9401
:1049F000F8088C2F81701F928F9321EE3DE03F933A
:104A00002F930E9491098DB79EB780960FB6F894A8
:104A10009EBF0FBE8DBF8FED9DE00E94F80888EC11
:104A20009DE00E94F808C1FB882780F91F928F93B0
:104A300025EC3DE03F932F930E94910983EC9DE08C
:104A40000E94F80881EB9DE00E94F808C2FB8827CD
:104A500080F91F928F932EEA3DE03F932F930E949F
:104A600091098CEA9DE00E94F8088AE99DE00E9485
:104A7000F808C3FB882780F91F928F9327E93DE050
:104A80003F932F930E94910985E99DE00E94F808C9
:104A90008BE89DE00E94F808C4FB882780F91F92EC
:104AA0008F9328E83DE03F932F930E94910986E879
:104AB0009DE00E94F80884E79DE00E94F808C5FB8D
:104AC000882780F91F928F9321E73DE03F932F9332
:104AD0000E9491098FE69DE00E94F80883E59DE021
:104AE0000E94F808C6FB882780F91F928F9320E563
:104AF0003DE03F932F930E9491098EE49DE00E9438
:104B0000F80886E49DE00E94F808C7FBCC27C0F9AE
:104B10001F92CF9383E49DE09F938F930E9491090E
:104B200081E49DE00E94F8088DB79EB74C960FB6C1
:104B3000F8949EBF0FBE8DBF04C08DE89BE00E941D
:104B4000F808C1E0BFC080918602C82FC095C1702F
:104B5000C0FB80F980938602CC2319F08BEF9EE096
:104B6000A0C08EEE9EE00E94F80880918602897FA8
:104B7000877F80938602E5CF8091860281FBCC27D8
:104B8000C0F991E0C927C0FB81F980938602CC234C
:104B900019F081EE9EE025C083ED9EE0D0CF80919C
:104BA000860282FBCC27C0F991E0C927C0FB82F9BD
:104BB00080938602CC2319F084EC9EE012C084EB33
:104BC0009EE0BDCF8091860283FBCC27C0F991E0A7
:104BD000C927C0FB83F980938602CC2351F088EA71
:104BE0009EE00E94F8088091860281608093860290
:104BF00069C08BE99EE0A3CF89E59AE00E94F8089E
:104C00000E94950F1F928F938FE39AE09F938F934B
:104C10000E949109809116011F928F9388E29AE079
:104C20009F938F930E9491098091B7021F928F9357
:104C300085E19AE09F938F930E9491098091BF0232
:104C400087FB882780F91F928F938DEF99E09F93C0
:104C50008F930E9491090E94011E9F938F937F93CF
:104C60006F9386EE99E09F938F930E9491098DB781
:104C70009EB746960FB6F8949EBF0FBE8DBF61CF0C
:104C80000E94CB158091BF0287FBCC27C0F991E031
:104C9000C927C0FB87F98093BF02CC2329F081E9A3
:104CA0009EE00E94F8080EC086E89EE048CF895337
:104CB00001C080E00E94CF2344CF84E89EE00E94A0
:104CC000F808C0E08C2FCF91089580E0089580E02F
:104CD00008958E518A3030F4E82FF0E0E75CFE4F03
:104CE0008081089580E00895CF93C82F809192022B
:104CF000813071F020F0823009F448C03CC1E0916D
:104D00000401F09105018081823209F036C107C0AB
:104D1000E0910401F09105018081823249F48C2FE9
:104D20000E94652681112FC08C2F0E94ED232CC07C
:104D30008C2F0E946726811126C0C431E1F070F4E7
:104D4000CB3081F0C031D1F40E94972289ED99E0F7
:104D50000E94F80882E08093920215C0C93259F08F
:104D6000C83361F486E69BE00E94F8088DED99E077
:104D70000E94F80808C01092920201C187ED99E0E4
:104D80000E94F808FCC081E08170FBC0C43228F5A5
:104D9000CE3108F0C1C0CB30A1F1D0F4C73009F05A
:104DA000D0C08EE180930B0182E380930A018AE0F8
:104DB0008093090184E18093080188E080930701D2
:104DC00088E2809306018DE798E00E94F808BCC055
:104DD000C33149F1C431C1F0B4C0CB3409F4A6C029
:104DE00028F4C93289F0C83361F0ABC0C13509F489
:104DF0009BC0C23509F496C0CE3409F0A2C06AE067
:104E00009BC00E949722A0C080919102882319F034
:104E10001092910299C08AE898E00E94F80881E017
:104E200080939202AEC084E698E00E94F80882E582
:104E300098E00E94F80880910B011F928F938FE4F5
:104E400098E09F938F930E9491098DE498E00E94CF
:104E5000F8088BE398E00E94F80880910A011F92FD
:104E60008F9388E398E09F938F930E94910986E344
:104E700098E00E94F80887E298E00E94F808809184
:104E800009011F928F9384E298E09F938F930E9471
:104E9000910982E298E00E94F80881E198E00E947E
:104EA000F808809108011F928F938EE098E09F93FD
:104EB0008F930E9491098CE098E00E94F80887EF98
:104EC00097E00E94F808809107011F928F9384EF6A
:104ED00097E09F938F930E94910982EF97E00E9441
:104EE000F8088BED97E00E94F808809106011F9268
:104EF0008F9388ED97E09F938F930E94910986EDA1
:104F000097E00E94F8088DB79EB748960FB6F894C0
:104F10009EBF0FBE8DBF18C08C2F0E946926809344
:104F2000910212C061E003C061E006C06AE08091B6
:104F300091020E94AE2208C0809191020E945123EA
:104F400003C08BE798E013C080919102882369F039
:104F50001F928F9385E798E09F938F930E9491090A
:104F60000F900F900F900F9004C082E798E00E947E
:104F7000F80881E006C01092920280E002C080E052
:104F800003CFCF9108958091B60208959FB7F8940A
:104F9000109295029FBF9091C502943009F058C0BD
:104FA0009091E9009F702091EC0020FF02C020E862
:104FB00001C020E0292B94E09093E9009091EB0050
:104FC00090FF43C09091EE0097FF3FC090919302F5
:104FD000992321F09091E80095FF37C01092930239
:104FE00096E03091E80035FD15C03091C5023430AF
:104FF00061F53091EB0035FD28C0915021F481E03E
:105000008093930222C0EFE9FFE03197F1F700C0EF
:105010000000E7CF8093F1008091E80085FD0AC091
:105020008091E80080FFFCCF8091E8008E7780932C
:10503000E80006C08FB7F89491E0909395028FBF77
:105040002F702093E90080E008952F702093E900ED
:105050008FEF08950F931F93CF93DF9300D01F928C
:10506000CDB7DEB78C010E94012B823011F0843065
:1050700019F583E089831B830A838093E9008FEF0E
:105080009091E800815095FD06C095ED9A95F1F755
:1050900000008111F5CF8091E80085FF0DC040E050
:1050A00050E063E070E0CE0101960E941E2B8091DB
:1050B000E8008E778093E8000F900F900F90DF91BB
:1050C000CF911F910F910895CF93DF9300D01F923E
:1050D000CDB7DEB72091C502243031F522E0298317
:1050E000805891099B838A8383E08093E9008FEF46
:1050F0009091E800815095FD06C095ED9A95F1F7E5
:1051000000008111F5CF8091E80085FF0DC040E0DF
:1051100050E063E070E0CE0101960E941E2B80916A
:10512000E8008E778093E8000F900F900F90DF914A
:10513000CF910895CF93DF93EC010E94012B823031
:1051400011F08430F9F482E08093E9008FEF9091C0
:10515000E800815095FD06C095ED9A95F1F70000A5
:105160008111F5CF8091E80085FF0CC040E050E050
:1051700065E070E0CE010E941E2B8091E8008E77E2
:105180008093E800DF91CF910895CF93DF93EC01F6
:105190000E94012B823019F0843009F047C08091C1
:1051A00016018823E1F08091BF0287FF18C085E0D7
:1051B0008093E9008FEF9091E800815095FD06C043
:1051C00095E19A95F1F700008111F5CF8091E80003
:1051D00085FF2CC040E050E060E270E017C081E045
:1051E0008093E9008FEF9091E800815095FD06C013
:1051F00095ED9A95F1F700008111F5CF8091E800C7
:1052000085FF14C040E050E068E070E0CE010E94ED
:105210001E2B8091E8008E778093E80080E2FE01EB
:10522000A6E9B2E001900D928A95E1F7DF91CF9166
:10523000089587E59FE00E94F8088091C4028111DB
:1052400009C00E94AA2C0E940C2D8091E20084606B
:105250008093E200089583E59FE00E94F808109291
:10526000C40208958FE49FE00C94F8088BE49FE05B
:105270000C94F80887E49FE00E94F8080C94BB1D8A
:10528000809194028F5F8093940262E30E94B12F19
:10529000911135C01092940280919502882379F182
:1052A0008091C502843049F58091E9008F7090911A
:1052B000EC0090FF02C090E801C090E0982B84E0E1
:1052C0008093E9008091EB0080FF14C08091EE0094
:1052D00087FF10C08091E80085FF03C01092F100A5
:1052E000F9CF8091E80080FF05C08091E8008E77BB
:1052F0008093E8009F709093E900109295020895C2
:1053000042E061EC81E00E94242C42E061EC82E00A
:105310000E94242C42E061EC83E00E94242C42E2B3
:1053200061EC84E00E94242C42E261EC85E00C9464
:10533000242C8091C702833009F455C030F48130A9
:1053400071F0823009F48EC008958A3009F47AC071
:105350008B3009F460C0893009F09CC020C0809176
:10536000C602813A09F096C08091E800877F809359
:10537000E8008091CA029091CB02892B21F060E075
:1053800080E090E003C060E286E992E070E00E9475
:10539000672B8091E8008B778093E80008958091D7
:1053A000C602813209F076C08091CA029091CB0288
:1053B000009719F0049709F06DC08091E800877F8D
:1053C0008093E8008091E80082FD05C08091C502CD
:1053D0008111F8CF5FC08091F1008093B602809177
:1053E000E8008B7753C08091C602813A09F052C021
:1053F0008091CA029091CB02892B09F04BC0809119
:10540000E800877F8093E8008091E80080FFFCCF70
:105410008091160136C08091C6028132D9F5809103
:10542000CA029091CB02892BA9F58091E800877F71
:105430008093E8000E94592C8091C8028093160145
:105440000C94CB158091C602813221F58091E80041
:10545000877F8093E8000E94592C8091C902809335
:10546000B70208958091C602813AA1F48091E800C4
:10547000877F8093E8008091E80080FFFCCF8091D7
:10548000B7028093F1008091E8008E778093E80066
:105490000C94592C089584B7877F84BF88E10FB698
:1054A000F89480936000109260000FBE80E88093B3
:1054B0006100109261000E941E100E94AA2C0E949E
:1054C0000C2D8091E20084608093E20086EC97E2EC
:1054D0000E94311C78940E94942F0E9422108CE02C
:1054E00091E00E94900F86E39FE00E94F80880916F
:1054F000C502853089F482E39FE00E94F8080E948B
:10550000721D8091C302882391F30E94A11D8823FC
:1055100071F30E94082BEBCF0E945610E8CF0C9439
:10552000912A292F332723303105A9F06CF421303B
:10553000310509F448C02230310509F049C08DE831
:1055400090E02BE83FE048C021323105F9F02232EB
:10555000310549F13DC099278130910571F02CF456
:10556000892BB1F5E7E8FFE00DC08230910541F0ED
:10557000039771F5EBE5FFE005C0EFE6FFE002C041
:10558000E1E6FFE0849190E09F0126C0653071055F
:10559000F8F4FB01EE0FFF1FEE5AFE4F2081318120
:1055A00089E090E019C06530710590F4FB01EE0FC1
:1055B000FF1FE85BFE4F20813181FB01ED5BFE4F59
:1055C000808190E009C082E190E028E130E104C0F0
:1055D00080E090E020E030E0FA01318320830895FC
:1055E0000895CF93C82F0E94F02AC093B802CF919C
:1055F00008958091C502843011F482E0089581E01D
:1056000008958091B802811102C00C94F92A08957E
:1056100084E189BD86E189BD09B400FEFDCF80919A
:10562000D8008F7D8093D8008091E00082608093C5
:10563000E0008091E00081FDFCCF0895CF92DF92E1
:10564000EF92FF920F931F93CF93DF937C018B0117
:10565000EA010E947A2C811131C0209731F08881B3
:105660009981081B190BE80EF91EC12CD12C0115CC
:10567000110519F18091E80085FD14C08091E800C2
:105680008E778093E800209741F0888199818C0D76
:105690009D1D9983888385E011C00E947A2C882300
:1056A00031F30CC0F70181917F018093F10001502B
:1056B0001109FFEFCF1ADF0ADACF80E0DF91CF9137
:1056C0001F910F91FF90EF90DF90CF900895209160
:1056D000CC023091CD022617370748F061157105CD
:1056E00039F42091E8002E772093E80001C0B90139
:1056F000FC0120E06115710599F18091C5028823B4
:10570000E9F18530E9F18091E80083FD3BC08091AB
:10571000E80082FF06C08091E80082FF24C080E09C
:1057200008958091E80080FFE5CF8091F20090918C
:10573000F3006115710551F08830910538F421911D
:105740002093F100615071090196F3CF21E0089791
:1057500009F020E08091E8008E778093E800CACFBE
:105760002111CBCFD8CF8091C502882339F0853065
:1057700039F08091E80083FFCECF04C082E0089525
:1057800083E0089581E008952091CC023091CD020C
:105790002617370748F06115710539F42091E800A4
:1057A0002E772093E80001C0B901FC0120E06115CB
:1057B0007105B1F18091C502882309F43FC085309D
:1057C00009F43EC08091E80083FD3CC08091E80070
:1057D00082FF06C08091E80082FF25C080E0089526
:1057E0008091E80080FFE3CF8091F2009091F30078
:1057F0006115710559F08830910540F4249120938A
:10580000F1003196615071090196F2CF21E00897BD
:1058100009F020E08091E8008E778093E800C7CF00
:105820002111C8CFD7CF8091C502882339F08530A8
:1058300039F08091E80083FFCDCF04C082E0089565
:1058400083E0089581E00895982F973058F590935C
:10585000E900981739F07091EC002091ED0050911B
:10586000F00003C0242F762F50E021FF19C03091A3
:10587000EB003E7F3093EB003091ED003D7F3093A5
:10588000ED003091EB0031603093EB007093EC0051
:105890002093ED005093F0002091EE0027FF07C009
:1058A0009F5FD3CF8F708093E90081E0089580E0FF
:1058B00008958091C60287FD05C08091E80080FFB1
:1058C0000EC012C08091E80082FD05C08091C50223
:1058D0008111F8CF08958091E8008B7708C08091FE
:1058E000C5028111EACF08958091E8008E778093F8
:1058F000E80008958091E4009091E50045E620914C
:10590000EC0020FF21C02091E80020FD21C0209163
:10591000C502222389F0253089F02091EB0025FD76
:105920000FC02091E4003091E5002817390739F3C2
:10593000415041F0C901E3CF82E0089583E008952A
:1059400081E0089584E008952091E80022FFDFCFF0
:1059500080E008950E941B2D0E94232DE0EEF0E0D0
:10596000808181608083E8EDF0E080818F778083A3
:1059700019BCA7EDB0E08C918E7F8C9380818F7ED7
:1059800080831092C40208950F931F93CF93DF93E7
:105990000E941B2D0E94232DC8EDD0E088818F77B7
:1059A000888388818068888388818F7D8883E7EDFC
:1059B000F0E080818068808319BC1092C50210924B
:1059C000C1021092C3021092C20200EE10E0F80170
:1059D00080818B7F808388818160888342E060E062
:1059E00080E00E94242CE1EEF0E080818E7F8083B5
:1059F000E2EEF0E080818160808380818860808336
:105A0000F80180818E7F8083888180618883DF9127
:105A1000CF911F910F910895E8EDF0E080818F7E86
:105A20008083E7EDF0E080818160808381E0809376
:105A3000C4020C94C42CE8EDF0E080818C7F80835C
:105A40001092E20008951092DA001092E100089599
:105A50001F920F920FB60F9211240BB60F922F9335
:105A60003F934F935F936F937F938F939F93AF93E6
:105A7000BF93EF93FF938091E10082FF0BC0809171
:105A8000E20082FF07C08091E1008B7F8093E100FC
:105A90000E9440298091DA0080FF1FC08091D800C9
:105AA00080FF1BC08091DA008E7F8093DA008091A6
:105AB000D90080FF0DC084E189BD86E189BD09B4AC
:105AC00000FEFDCF81E08093C5020E94192905C028
:105AD00019BC1092C5020E942B298091E10080FF21
